:020000040000FA
:0400000027EF00F0F6
:100008005D82FACF01F0FBCF02F0F2AC0EEF00F008
:1000180010EF00F021EF00F00E01C6AB16EF00F074
:1000280018EF00F021EF00F0CEAB1DEF00F01FEF4E
:1000380000F021EF00F0EDEC97F002C0FBFF01C0EB
:0A004800FAFF5D921100D4EF94F06E
:10FEBC0000BA2F015A2F014A2F01FA1B01481E01CB
:10FECC00AE2F016222011C30011430010C300104F0
:10FEDC003001FC2F01F42F01EC2F01A22F01BA24C9
:10FEEC000125692020433A30782530325820523A87
:10FEFC003078253032580A202020473A3078253087
:10FF0C00325820423A30782530325800496E6672A9
:10FF1C00617265640A4F7574204F662052616E677A
:10FF2C0065210050574D20447574790A4379636CF0
:10FF3C00653A203130300050574D20447574790AA1
:10FF4C004379636C653A2032300050574D2044752C
:10FF5C0074790A4379636C653A2035300050574DFB
:10FF6C0020447574790A4379636C653A2036300005
:10FF7C0050574D20447574790A4379636C653A2067
:10FF8C0033330050574D20447574790A4379636CB0
:10FF9C00653A20363600426174204C6F77210A4254
:10FFAC006174204C6F7721004D31494E313A2569EF
:10FFBC00204D31494E323A2569004D32494E313A85
:10FFCC002569204D32494E323A256900496E6672D8
:10FFDC00617265643A0A20257520636D000A52FC33
:10FFEC00636B77E4727473000A566F7277E4727401
:03FFFC007300008F
:020000040001F9
:10000000000E0001E86F000EE96F000EEA6F000EAF
:10001000EB6F70EC96F0F28EF28C000E046E640EB4
:10002000036EE8EC97F02C0E036E300E046E010E9A
:10003000056EB5EC97F029EC93F0040EAAEC90F065
:10004000E80E146E000E156E400EECEC91F0B6EC5E
:1000500093F08396839E21EF83F0924B932B1E0E99
:1000600092199311D8A437EF80F039EF80F0A3EF05
:1000700080F0FD2B050EFD19D8A441EF80F043EF71
:1000800080F045EF80F0010EFD6F000E936F000EC3
:10009000926FA3EF80F0000E1E6EFD5165EC90F0A4
:1000A0000001E76F010E1E6EFD5165EC90F000013E
:1000B000E86F020E1E6EFD5165EC90F00001E96FD5
:1000C000030E1E6EFD5165EC90F00001EA6F88ECA6
:1000D00097F0ED0E0001D56FFE0ED66FFDC0D7F084
:1000E000D86BE7C0D9F0DA6BE8C0DBF0DC6BE9C0B5
:1000F000DDF0DE6BEAC0DFF0E06B9DEC96F0C0EF68
:1001000080F0E0EC95F00001EB6F88EC97F0320E98
:100110000001EB618EEF80F090EF80F09BEF80F0BC
:10012000D80ED56FFF0ED66FEBC0D7F0D86B9DEC15
:1001300096F0C0EF80F0180ED56FFF0ED66F9DECD5
:1001400096F0C0EF80F0FD51E56FE66BE651000AD6
:10015000D8B4ADEF80F0C0EF80F0E551010AD8B41B
:100160004BEF80F0030AD8B44BEF80F0010AD8B40B
:100170004BEF80F0070AD8B481EF80F0C0EF80F039
:10018000C8EC95F0B5EC88F043EF83F08FBACBEF75
:1001900080F0CDEF80F043EF83F0000E986F88EC95
:1001A00097F043EF83F0924B932B1E0E921993110D
:1001B000D8A4DDEF80F0DFEF80F0C2EF81F099EF9F
:1001C00081F0000E046E320E036E95EC95F0000E79
:1001D000046E320E036E7BEC95F088EC97F0430EC4
:1001E0000001D56FFF0ED66F9DEC96F08784250E2B
:1001F0004FEC97F08794010E0001976FBEEF81F0EE
:10020000000E046E560E036E95EC95F0000E046E13
:10021000560E036E7BEC95F088EC97F07C0E000197
:10022000D56FFF0ED66F9DEC96F08784250E4FECB0
:1002300097F08794020E0001976FBEEF81F0000ED9
:10024000046E7F0E036E95EC95F0000E046E7F0E2B
:10025000036E7BEC95F088EC97F0560E0001D56F9D
:10026000FF0ED66F9DEC96F08784250E4FEC97F02D
:100270008794030E0001976FBEEF81F0000E046EAD
:10028000990E036E95EC95F0000E046E990E036EB8
:100290007BEC95F088EC97F0690E0001D56FFF0EAE
:1002A000D66F9DEC96F08784250E4FEC97F08794DF
:1002B000040E0001976FBEEF81F0000E046EA80ED1
:1002C000036E95EC95F0000E046EA80E036E7BECA9
:1002D00095F088EC97F08F0E0001D56FFF0ED66F6A
:1002E0009DEC96F08784250E4FEC97F08794050ED1
:1002F0000001976FBEEF81F0000E046E036895EC6D
:1003000095F0000E046E03687BEC95F088EC97F096
:100310002F0E0001D56FFF0ED66F9DEC96F08784EF
:10032000250E4FEC97F08794000E0001976FBEEFFB
:1003300081F09751E56FE66BE651000AD8B4A3EF60
:1003400081F0BEEF81F0E551000AD8B4E1EF80F012
:10035000010AD8B400EF81F0030AD8B41FEF81F08E
:10036000010AD8B43EEF81F0070AD8B45DEF81F0FE
:10037000010AD8B47CEF81F0BEEF81F0000E936FDC
:10038000000E926F8EB8C7EF81F0C9EF81F0D9EF00
:1003900081F09651D8B4CFEF81F0D1EF81F0D9EF51
:1003A00081F0000E986F8396839E000E936F000E6F
:1003B000926F000E8EB8010E966F43EF83F0924B52
:1003C000932B1E0E92199311D8A4E9EF81F0EBEF55
:1003D00081F062EF82F083A2F0EF81F0F4EF81F020
:1003E000E56BE52BF6EF81F00001E56BE547835007
:1003F000E519FD0BE519836E83A401EF82F005EF8B
:1004000082F0E56BE52B07EF82F00001E56BE54735
:10041000E5478350E519FB0BE519836E88EC97F0EF
:10042000B40E0001D56FFF0ED66F83B21AEF82F0C3
:100430001EEF82F0E56BE52B20EF82F00001E56B0B
:10044000E551D76FD86B83B428EF82F02CEF82F0A0
:10045000E66BE62B2EEF82F00001E66BE651D96FDA
:10046000DA6B9DEC96F083A238EF82F03AEF82F0DF
:1004700048EF82F083B43FEF82F041EF82F048EF23
:1004800082F0F40E0001D56FFF0ED66F9DEC96F052
:1004900083B24DEF82F04FEF82F05DEF82F083A4E4
:1004A00054EF82F056EF82F05DEF82F0E90E00012A
:1004B000D56FFF0ED66F9DEC96F0000E0001936F86
:1004C000000E926F8EB667EF82F069EF82F079EFDF
:1004D00082F09551D8B46FEF82F071EF82F079EF2E
:1004E00082F0000E986F8396839E000E936F000E2D
:1004F000926F000E8EB6010E956F43EF83F0924B14
:10050000932B1E0E92199311D8A489EF82F08BEFD2
:1005100082F004EF83F083AA90EF82F094EF82F0F0
:10052000E56BE52B96EF82F00001E56BE53BE547D7
:100530008350E519DF0BE519836E83ACA2EF82F0DF
:10054000A6EF82F0E56BE52BA8EF82F00001E56BEA
:10055000E53BE547E5478350E519BF0BE519836E99
:1005600088EC97F0C60E0001D56FFF0ED66F83BAE8
:10057000BCEF82F0C0EF82F0E56BE52BC2EF82F0BA
:100580000001E56BE551D76FD86B83BCCAEF82F0F1
:10059000CEEF82F0E66BE62BD0EF82F00001E66B47
:1005A000E651D96FDA6B9DEC96F083AADAEF82F010
:1005B000DCEF82F0EAEF82F083BCE1EF82F0E3EF60
:1005C00082F0EAEF82F0F40E0001D56FFF0ED66FD5
:1005D0009DEC96F083BAEFEF82F0F1EF82F0FFEF3F
:1005E00082F083ACF6EF82F0F8EF82F0FFEF82F05A
:1005F000E90E0001D56FFF0ED66F9DEC96F0000E50
:100600000001936F000E926F8EB409EF83F00BEF31
:1006100083F01BEF83F09451D8B411EF83F013EF04
:1006200083F01BEF83F0000E986F8396839E000E7D
:10063000936F000E926F000E8EB4010E946F43EF15
:1006400083F000019851E56FE66BE651000AD8B4DB
:100650002CEF83F043EF83F0E551000AD8B42DEF7F
:1006600080F0010AD8B4C6EF80F0030AD8B4D3EF03
:1006700080F0010AD8B4DFEF81F0070AD8B47FEF29
:1006800082F043EF83F0E7EC96F021EF83F027EF61
:1006900000F04FC0D9FF50C0DAFFDECFF6FFDDCF4C
:1006A000F7FF000EF86E0800F550250AD8A45BEF9E
:1006B00083F05DEF83F0BEEF85F04FC0D9FF50C0EF
:1006C000DAFFDE2A000EDD22000E00018D6F000E23
:1006D0008C6F8CC05BF08DC05CF08E698F69000EF2
:1006E000C46F000EC36FBDEF83F05B804FC0D9FFB6
:1006F00050C0DAFFDE2A000EDD22BDEF83F05B8200
:1007000076EF83F05B8476EF83F05B8676EF83F0A1
:100710005B8876EF83F0000EC46F010EC36FBDEFF0
:1007200083F04FC0D9FF50C0DAFFDECFF6FFDDCF38
:10073000F7FF000EF86E0800F550536E546A5450DF
:10074000000AD8B4A6EF83F08BEF83F05350200A51
:10075000D8B485EF83F0030AD8B488EF83F0080A91
:10076000D8B482EF83F0060AD8B475EF83F01D0A7F
:10077000D8B47FEF83F08BEF83F0C351C411D8B4AA
:10078000C4EF83F0C6EF83F091EF83F05BA0CBEF73
:1007900083F0CDEF83F0CEEF83F05B924FC0D9FFB3
:1007A00050C0DAFFDECFF6FFDDCFF7FF000EF86EA8
:1007B0000800F5502A0AD8A4E0EF83F0E2EF83F0B6
:1007C0000BEF84F04FC0D9FF50C0DAFFDE2A000ED5
:1007D000DD2251C0D9FF52C0DAFFDFCF53F0020E45
:1007E000DE26DFCF54F0000EDD2253C0D9FF54C007
:1007F000DAFFDECF8CF0DDCF8DF08DBF04EF84F01B
:1008000002EF84F051EF84F05B808C6D8D1FD8B0C7
:100810008D2B51EF84F04FC0D9FF50C0DAFFDECFEF
:100820000AF0DDCF0BF0D5EC8AF00AC08CF00BC0DB
:100830008DF022EF84F04FC0D9FF50C0DAFFDE2ADE
:10084000000EDD22D00E536EFF0E546E4FC0D9FF46
:1008500050C0DAFFDECFF6FFDDCFF7FF000EF86EF7
:100860000800F550556E566A53505526545056227E
:1008700056500AE10A0E555CD8A041EF84F044EFCF
:1008800084F0010E45EF84F0000E0001C56FC66BC9
:10089000C551C611D8A44FEF84F051EF84F01BEF7F
:1008A00084F04FC0D9FF50C0DAFFDECFF6FFDDCFB6
:1008B000F7FF000EF86E0800F550640AD8B463EF35
:1008C00084F065EF84F079EF84F04FC0D9FF50C019
:1008D000DAFFDECFF6FFDDCFF7FF000EF86E08007F
:1008E000F550690AD8A477EF84F079EF84F0B9EF76
:1008F00084F04FC0D9FF50C0DAFFDE2A000EDD229F
:1009000051C0D9FF52C0DAFFDFCF53F0020EDE260E
:10091000DFCF54F0000EDD2253C0D9FF54C0DAFF00
:10092000DECFBAF0DDCFBBF0000EBBBFFF0EBC6F59
:10093000BD6FBE6FBF6FC06FC16F4DC026F04EC0A0
:1009400027F0BAC028F0BBC029F0BCC02AF0BDC057
:100950002BF0BEC02CF0BFC02DF0C0C02EF0C1C027
:100960002FF0DCEC85F026C04DF027C04EF0DBEF19
:1009700085F04FC0D9FF50C0DAFFDECFF6FFDDCFE4
:10098000F7FF000EF86E0800F550750AD8A4CBEFFB
:1009900084F0CDEF84F00EEF85F04FC0D9FF50C04A
:1009A000DAFFDE2A000EDD2251C0D9FF52C0DAFF85
:1009B000DFCF53F0020EDE26DFCF54F0000EDD2233
:1009C00053C0D9FF54C0DAFFDECF55F0DDCF56F06B
:1009D00055C0C7F056C0C8F0C96BCA6BCB6BCC6BA7
:1009E000CD6BCE6B4DC026F04EC027F0C7C028F0AF
:1009F000C8C029F0C9C02AF0CAC02BF0CBC02CF067
:100A0000CCC02DF0CDC02EF0CEC02FF0D5EC89F0AB
:100A100026C04DF027C04EF0DBEF85F04FC0D9FF68
:100A200050C0DAFFDECFF6FFDDCFF7FF000EF86E25
:100A30000800F550780AD8B420EF85F022EF85F051
:100A400036EF85F04FC0D9FF50C0DAFFDECFF6FF9A
:100A5000DDCFF7FF000EF86E0800F550580AD8A455
:100A600034EF85F036EF85F086EF85F04FC0D9FF83
:100A700050C0DAFFDECFF6FFDDCFF7FF000EF86ED5
:100A80000800F5CFC2F04FC0D9FF50C0DAFFDE2A10
:100A9000000EDD2251C0D9FF52C0DAFFDFCF53F084
:100AA000020EDE26DFCF54F0000EDD2253C0D9FF48
:100AB00054C0DAFFDECF55F0DDCF56F055C0C7F099
:100AC00056C0C8F0C96BCA6BCB6BCC6BCD6BCE6B11
:100AD0004DC026F04EC027F0C7C028F0C8C029F08E
:100AE000C9C02AF0CAC02BF0CBC02CF0CCC02DF06E
:100AF000CDC02EF0CEC02FF0C2C030F04BEC87F04E
:100B000026C04DF027C04EF0DBEF85F04FC0D9FF77
:100B100050C0DAFFDECFF6FFDDCFF7FF000EF86E34
:100B20000800F550250AD8A498EF85F09AEF85F0D3
:100B3000B1EF85F04FC0D9FF50C0DAFFDE2A000EBA
:100B4000DD22000E0C6E250E0B6E4DC00DF04EC05A
:100B50000EF01AEC90F0000E4E6E010E4D6EDBEFB3
:100B600085F04FC0D9FF50C0DAFFDE2A000EDD222B
:100B7000000E4E6E000E4D6EDBEF85F04FC0D9FFBC
:100B800050C0DAFFDECFF6FFDDCFF7FF000EF86EC4
:100B90000800F5500B6E0C6A4DC00DF04EC00EF003
:100BA0001AEC90F04FC0D9FF50C0DAFFDE2A000ED9
:100BB000DD22ABEF85F0120028C040F029C041F0E3
:100BC0002AC042F02BC043F02CC044F02DC045F0A9
:100BD0002EC046F02FC047F047BEF1EF85F0F4EF8E
:100BE00085F0010EF5EF85F0000E3E6E3F6A3E5037
:100BF0003F10D8B4FEEF85F000EF86F010EF86F0DE
:100C0000471E461E451E441E431E421E411E406C8A
:100C1000000E4122422243224422452246224722FC
:100C200000018FBF16EF86F018EF86F019EF86F0FF
:100C30005B928FBF26EF86F08F5106E18E05D8B00C
:100C400024EF86F026EF86F02CEF86F0000E3B6E48
:100C5000010E3A6E30EF86F08EC03AF08FC03BF056
:100C60008CC03CF08DC03DF03E503F10D8A43BEF0F
:100C700086F03DEF86F044EF86F05BA442EF86F00D
:100C800044EF86F047EF86F03C06D8A03D06000E04
:100C9000496E1F0E486E000EB96FCBEF86F0480606
:100CA000D8A049069A0E4824D96E000E4920DA6E63
:100CB00040C003F041C004F042C005F043C006F05C
:100CC00044C007F045C008F046C009F047C00AF02C
:100CD0000A0E0B6E000E0C6E000E0D6E000E0E6EE8
:100CE000000E0F6E000E106E000E116E000E126ED2
:100CF0006BEC8CF003C030F004C031F005C032F072
:100D000006C033F007C034F008C035F009C036F033
:100D10000AC037F030C015F032C016F096EC94F0EF
:100D20001550300FDF6E3A06D8A03B063C06D8A01F
:100D30003D0640C003F041C004F042C005F043C08E
:100D400006F044C007F045C008F046C009F047C0AF
:100D50000AF00A0E0B6E000E0C6E000E0D6E000EE9
:100D60000E6E000E0F6E000E106E000E116E000E55
:100D7000126EA7EC8BF003C040F004C041F005C038
:100D800042F006C043F007C044F008C045F009C077
:100D900046F00AC047F049BED6EF86F0495008E158
:100DA0004804D8A0D6EF86F0D8EF86F008EF87F099
:100DB0004050411042104310441045104610471057
:100DC000D8A4E5EF86F0E7EF86F04FEF86F03BBE64
:100DD000F4EF86F03B5006E13A04D8B0F2EF86F02B
:100DE000F4EF86F04FEF86F03DBEFFEF86F03D500A
:100DF00008E13C04D8A0FFEF86F001EF87F008EF90
:100E000087F05BB206EF87F008EF87F04FEF86F0D0
:100E10003E503F10D8A40FEF87F011EF87F018EF86
:100E200087F05BA416EF87F018EF87F036EF87F0B6
:100E30004806D8A049063E503F10D8A422EF87F0BC
:100E400024EF87F02AEF87F0000E396E2B0E386EF4
:100E50002EEF87F0000E396E2D0E386E9A0E482454
:100E6000D96E000E4920DA6E38C0DFFF26C01BF0B5
:100E700027C01CF09A0E48241D6E000E49201E6EDD
:100E80003CC01FF03DC020F0C3EC8EF01BC026F02C
:100E90001CC027F0120000018FBF51EF87F053EF05
:100EA00087F054EF87F05B928FBF61EF87F08F512F
:100EB00006E18E05D8B05FEF87F061EF87F067EF4E
:100EC00087F0000E3E6E010E3D6E6BEF87F08EC018
:100ED0003DF08FC03EF08CC03FF08DC040F05BA86D
:100EE00074EF87F076EF87F07AEF87F0FE0E3F26FB
:100EF000FF0E402228C041F029C042F02AC043F032
:100F00002BC044F02CC045F02DC046F02EC047F059
:100F10002FC048F0000E4A6E1F0E496E000EB96FCA
:100F200045EF88F04906D8A04A060F0E41144B6ED3
:100F30004C6A4CBEA5EF87F04C5009E10A0E4B5CA1
:100F4000D8A0A5EF87F0A7EF87F0AFEF87F0570E97
:100F50004B244B6E000E4C204C6EB5EF87F0300EDC
:100F60004B244B6E000E4C204C6EBF0E316EFF0EAC
:100F7000326E3050336E346A315033263250342260
:100F800034500AE11A0E335CD8A0C9EF87F0CCEFD9
:100F900087F0010ECDEF87F0000E396E3A6A3950B6
:100FA0003A10D8B4D6EF87F0D8EF87F008EF88F082
:100FB0009F0E316EFF0E326E200E4B10336E000E00
:100FC0004C10346E315033263250342234500AE102
:100FD0001A0E335CD8A0EFEF87F0F2EF87F0010E26
:100FE000F3EF87F0000E3B6E3C6A3B503C10D8B4E8
:100FF000FCEF87F0FEEF87F008EF88F04BC009F0B8
:101000004CC00AF087EC93F009C04BF00AC04CF0DA
:101010009A0E4924D96E000E4A20DA6E4BC0DFFFCB
:101020003D06D8A03E063F06D8A0400641C031F09C
:1010300042C032F043C033F044C034F045C035F014
:1010400046C036F047C037F048C038F0050E32EFE2
:1010500088F0D89038323732363235323432333243
:1010600032323132E82E29EF88F031C041F032C0FF
:1010700042F033C043F034C044F035C045F036C0D0
:1010800046F037C047F038C048F04ABE51EF88F00C
:101090004A5009E1020E495CD8A051EF88F053EFA5
:1010A00088F083EF88F041504210431044104510FF
:1010B000461047104810D8A460EF88F062EF88F01F
:1010C00092EF87F03EBE6FEF88F03E5006E13D04A0
:1010D000D8B06DEF88F06FEF88F092EF87F040BEE8
:1010E0007AEF88F0405008E13F04D8A07AEF88F00A
:1010F0007CEF88F083EF88F05BB281EF88F083EFBC
:1011000088F092EF87F05BA888EF88F08AEF88F08C
:10111000A0EF88F04906D8A04A069A0E4924D96E55
:10112000000E4A20DA6E30C0DFFF4906D8A04A061A
:101130009A0E4924D96E000E4A20DA6E300EDF6E08
:1011400026C01BF027C01CF09A0E49241D6E000E0D
:101150004A201E6E3FC01FF040C020F0C3EC8EF04E
:101160001BC026F01CC027F0120000019851D8A423
:10117000BCEF88F0BEEF88F0D4EF89F08EA8C3EF03
:1011800088F0C5EF88F0F6EF88F09651D8A4CBEF41
:1011900088F0CDEF88F0F6EF88F0020E986F000E21
:1011A000936F000E926F8386838E83828394838AEB
:1011B000839C000E046E320E036E95EC95F0000ECB
:1011C000046E320E036E7BEC95F088EC97F0430EC4
:1011D0000001D56FFF0ED66F9DEC96F08784250E2B
:1011E0004FEC97F08794010E0001976F000E8EB8B8
:1011F000010E966F8EA6FFEF88F001EF89F062EF87
:1012000089F09551D8A407EF89F009EF89F062EFD2
:1012100089F0030E986F000E936F000E926F838615
:10122000839E8382839488EC97F0B40E0001D56F7F
:10123000FF0ED66F83B21FEF89F023EF89F0596A52
:10124000592A24EF89F0596A59500001D76FD86B99
:1012500083B42DEF89F031EF89F05A6A5A2A32EFC0
:1012600089F05A6A5A500001D96FDA6B9DEC96F0FA
:1012700083A23DEF89F03FEF89F04DEF89F083B411
:1012800044EF89F046EF89F04DEF89F0F40E00014C
:10129000D56FFF0ED66F9DEC96F083B252EF89F0BA
:1012A00054EF89F062EF89F083A459EF89F05BEF86
:1012B00089F062EF89F0E90E0001D56FFF0ED66F5D
:1012C0009DEC96F0000E8EB6010E0001956F8EA477
:1012D0006CEF89F06EEF89F0CFEF89F09451D8A4CC
:1012E00074EF89F076EF89F0CFEF89F0040E986FF4
:1012F000000E936F000E926F8396838E838A839C79
:1013000088EC97F0C60E0001D56FFF0ED66F83BA3A
:101310008CEF89F090EF89F0596A592A91EF89F0A2
:10132000596A59500001D76FD86B83BC9AEF89F086
:101330009EEF89F05A6A5A2A9FEF89F05A6A5A50EA
:101340000001D96FDA6B9DEC96F083AAAAEF89F0C1
:10135000ACEF89F0BAEF89F083BCB1EF89F0B3EF5D
:1013600089F0BAEF89F0F40E0001D56FFF0ED66F49
:101370009DEC96F083BABFEF89F0C1EF89F0CFEF13
:1013800089F083ACC6EF89F0C8EF89F0CFEF89F020
:10139000E90E0001D56FFF0ED66F9DEC96F0000EA2
:1013A0008EB4010E0001946F120000018FBFDBEFBD
:1013B00089F0DDEF89F0DEEF89F05B928FBFEBEF14
:1013C00089F08F5106E18E05D8B0E9EF89F0EBEF97
:1013D00089F0F1EF89F0000E396E010E386EF5EFED
:1013E00089F08EC038F08FC039F08CC03AF08DC0D3
:1013F0003BF028C03CF029C03DF02AC03EF02BC095
:101400003FF02CC040F02DC041F02EC042F02FC064
:1014100043F0000E456E1F0E446E000EB96F87EF4D
:101420008AF04406D8A045069A0E4424D96E000ED0
:101430004520DA6E3CC003F03DC004F03EC005F02C
:101440003FC006F040C007F041C008F042C009F0BC
:1014500043C00AF00A0E0B6E000E0C6E000E0D6EED
:10146000000E0E6E000E0F6E000E106E000E116E4E
:10147000000E126E95EC8DF003C030F004C031F018
:1014800005C032F006C033F007C034F008C035F0B4
:1014900009C036F00AC037F03050300FDF6E380622
:1014A000D8A039063A06D8A03B063CC003F03DC0A0
:1014B00004F03EC005F03FC006F040C007F041C058
:1014C00008F042C009F043C00AF00A0E0B6E000E8D
:1014D0000C6E000E0D6E000E0E6E000E0F6E000EE6
:1014E000106E000E116E000E126E1DEC8DF003C01A
:1014F0003CF004C03DF005C03EF006C03FF007C020
:1015000040F008C041F009C042F00AC043F0445026
:101510004510D8B48EEF8AF090EF8AF0C0EF8AF0D1
:101520003C503D103E103F104010411042104310FF
:10153000D8A49DEF8AF09FEF8AF011EF8AF039BEB0
:10154000ACEF8AF0395006E13804D8B0AAEF8AF03F
:10155000ACEF8AF011EF8AF03BBEB7EF8AF03B5058
:1015600008E13A04D8A0B7EF8AF0B9EF8AF0C0EFEB
:101570008AF05BB2BEEF8AF0C0EF8AF011EF8AF01A
:1015800026C01BF027C01CF09A0E44241D6E000ECE
:1015900045201E6E3AC01FF03BC020F0C3EC8EF019
:1015A0001BC026F01CC027F01200000E186E000EA3
:1015B000176E000E116E000E106EE1EF8AF00A4AEF
:1015C0000B2A010E166E0AC0F6FF0BC0F7FF000EC5
:1015D000F86E0800F550200AD8B4F1EF8AF0F3EF66
:1015E0008AF012EF8BF0F70E0C6EFF0E0D6E0AC034
:1015F000F6FF0BC0F7FF000EF86E0800F5500E6EF8
:101600000F6A0C500E260D500F220F5009E1050EE7
:101610000E5CD8A00EEF8BF010EF8BF012EF8BF07A
:10162000000E166E16C012F0136A12501310D8A4D2
:101630001CEF8BF01EEF8BF0DFEF8AF028EF8BF0C2
:10164000000E116E010E106E0A4A0B2A61EF8BF02C
:101650000AC0F6FF0BC0F7FF000EF86E0800F55049
:101660000C6E0D6A0D50000AD8B439EF8BF061EFA3
:101670008BF00C502B0AD8B424EF8BF0060AD8B4A8
:1016800020EF8BF061EF8BF017C003F018C004F06F
:10169000000E066E0A0E056EB1EC96F00AC0F6FF5B
:1016A0000BC0F7FF000EF86E0800F550035E000E49
:1016B000045A300E0324176E000E0420186E24EF17
:1016C0008BF0D00E0C6EFF0E0D6E0AC0F6FF0BC035
:1016D000F7FF000EF86E0800F5500E6E0F6A0C5002
:1016E0000E260D500F220F500AE10A0E0E5CD8A0F4
:1016F0007CEF8BF07FEF8BF0010E80EF8BF0000E14
:10170000146E156A14501510D8A489EF8BF08BEF66
:101710008BF044EF8BF010501110D8A492EF8BF0A7
:1017200094EF8BF0A2EF8BF017C00CF018C00DF007
:101730000C1E0D1E0C4A0D2A0CC00AF00DC00BF039
:10174000A6EF8BF017C00AF018C00BF01200000EC5
:10175000146E12BEB0EF8BF0AEEF8BF0C2EF8BF0D9
:10176000121E111E101E0F1E0E1E0D1E0C1E0B6CC7
:10177000000E0C220D220E220F2210221122122204
:10178000010E146E0ABEC9EF8BF0C7EF8BF0DBEFD2
:101790008BF00A1E091E081E071E061E051E041ECB
:1017A000036C000E042205220622072208220922C9
:1017B0000A22010E141A20EE15F0070EDE6AE80662
:1017C000FDE20B500C100D100E100F101010111028
:1017D0001210D8B4EEEF8BF0F0EF8BF042EF8CF0FC
:1017E000010E136EFEEF8BF0D8900B360C360D36D3
:1017F0000E360F36103611361236132A12AE03EF9C
:101800008CF005EF8CF0F4EF8BF0D890153616368F
:101810001736183619361A361B361C360B50035C31
:101820000C5004580D5005580E5006580F500758CC
:10183000105008581150095812500A58D8A023EFD8
:101840008CF025EF8CF036EF8CF00B50035E0C50D3
:10185000045A0D50055A0E50065A0F50075A105090
:10186000085A1150095A12500A5A1580D89012324B
:10187000113210320F320E320D320C320B32132E67
:1018800005EF8CF01450D8B448EF8CF04AEF8CF090
:101890005AEF8CF01C1E1B1E1A1E191E181E171E36
:1018A000161E156C000E16221722182219221A2253
:1018B0001B221C2215C003F016C004F017C005F04F
:1018C00018C006F019C007F01AC008F01BC009F0D4
:1018D0001CC00AF01200000E146E0ABE74EF8CF0E9
:1018E00072EF8CF086EF8CF00A1E091E081E071E90
:1018F000061E051E041E036C000E0422052206228D
:101900000722082209220A22010E146E12BE8DEF50
:101910008CF08BEF8CF09DEF8CF0121E111E101EC0
:101920000F1E0E1E0D1E0C1E0B6C000E0C220D2227
:101930000E220F221022112212220B500C100D1019
:101940000E100F10101011101210D8B4AAEF8CF056
:10195000ACEF8CF0F4EF8CF0010E136EBAEF8CF05C
:10196000D8900B360C360D360E360F361036113633
:101970001236132A12AEBFEF8CF0C1EF8CF0B0EF2D
:101980008CF00B50035C0C5004580D5005580E5051
:1019900006580F5007581050085811500958125047
:1019A0000A58D8A0D6EF8CF0D8EF8CF0E8EF8CF086
:1019B0000B50035E0C50045A0D50055A0E50065A37
:1019C0000F50075A1050085A1150095A12500A5A0B
:1019D000D8901232113210320F320E320D320C32D8
:1019E0000B32132EC1EF8CF01450D8B4FAEF8CF0F8
:1019F000FCEF8CF00CEF8DF00A1E091E081E071E6E
:101A0000061E051E041E036C000E0422052206227B
:101A10000722082209220A2203C003F004C004F0AE
:101A200005C005F006C006F007C007F008C008F0C2
:101A300009C009F00AC00AF0120020EE13F0070EE8
:101A4000DE6AE806FDE20B500C100D100E100F10B0
:101A5000101011101210D8B430EF8DF032EF8DF05D
:101A600084EF8DF0010E1B6E40EF8DF0D8900B3699
:101A70000C360D360E360F361036113612361B2A3E
:101A800012AE45EF8DF047EF8DF036EF8DF0D89028
:101A900013361436153616361736183619361A36E2
:101AA0000B50035C0C5004580D5005580E5006584E
:101AB0000F500758105008581150095812500A5822
:101AC000D8A065EF8DF067EF8DF078EF8DF00B50BB
:101AD000035E0C50045A0D50055A0E50065A0F5012
:101AE000075A1050085A1150095A12500A5A1380B6
:101AF000D8901232113210320F320E320D320C32B7
:101B00000B321B2E47EF8DF013C003F014C004F00E
:101B100015C005F016C006F017C007F018C008F091
:101B200019C009F01AC00AF012000B500C100D1069
:101B30000E100F10101011101210D8B4A2EF8DF06B
:101B4000A4EF8DF0ECEF8DF0010E136EB2EF8DF07F
:101B5000D8900B360C360D360E360F361036113641
:101B60001236132A12AEB7EF8DF0B9EF8DF0A8EF51
:101B70008DF00B50035C0C5004580D5005580E505E
:101B800006580F5007581050085811500958125055
:101B90000A58D8A0CEEF8DF0D0EF8DF0E0EF8DF0A9
:101BA0000B50035E0C50045A0D50055A0E50065A45
:101BB0000F50075A1050085A1150095A12500A5A19
:101BC000D8901232113210320F320E320D320C32E6
:101BD0000B32132EB9EF8DF003C003F004C004F0F4
:101BE00005C005F006C006F007C007F008C008F001
:101BF00009C009F00AC00AF012007EEC97F0000953
:101C0000D8B405EF8EF007EF8EF044EF8EF015EFAD
:101C10008EF00EEC98F060EF8EF00AEC98F060EF2A
:101C20008EF002EC98F060EF8EF078C00EF079C084
:101C30000FF020EE69F002D828EF8EF00500FA6E62
:101C4000DE50FD6EDE50FE6EDE50FF6EFA5012006A
:101C5000106E116A1150000AD8B431EF8EF011EFF6
:101C60008EF01050010AD8B411EF8EF0030AD8B4E8
:101C700009EF8EF0010AD8B40DEF8EF0070AD8B440
:101C800011EF8EF011EF8EF00001899183C0D9FF22
:101C900084C0DAFF834B842BDF5012EC98F00001F4
:101CA0008507D8A0860785518611D8A45AEF8EF0F3
:101CB0005CEF8EF05FEF8EF0060E60EF8EF0030E9D
:101CC0001200000E086E06BE6AEF8EF068EF8EF00E
:101CD00070EF8EF0056C061ED8B0062A010E086E55
:101CE00004BE77EF8EF075EF8EF07DEF8EF0036C13
:101CF000041ED8B0042A010E081A000E0A6E000E47
:101D0000096E05500610D8B488EF8EF08AEF8EF079
:101D1000B2EF8EF0010E076E92EF8EF0D89005367E
:101D20000636072A06AE97EF8EF099EF8EF08EEF0B
:101D30008EF0D89009360A360550035C06500458D8
:101D4000D8A0A5EF8EF0A7EF8EF0ACEF8EF0055087
:101D5000035E0650045A0980D89006320532072ED9
:101D600099EF8EF00850D8B4B8EF8EF0BAEF8EF03D
:101D7000BEEF8EF0096C0A1ED8B00A2A09C003F023
:101D80000AC004F012005BA0C8EF8EF0CAEF8EF01C
:101D9000D4EF8EF01DC014F01EC015F01BC016F05D
:101DA0001CC017F074EC94F020BED9EF8EF0DBEF7E
:101DB0008EF0E1EF8EF01FC024F020C025F0E5EF9B
:101DC0008EF0000E256E000E246E000E236E000EA7
:101DD000226EF7EF8EF0000E0C6E200E0B6E1BC005
:101DE0000DF01CC00EF01AEC90F0224A232A245069
:101DF000225C2350800A216E2550800A2158D8A0E9
:101E000004EF8FF006EF8FF0EBEF8EF05BB00BEF8F
:101E10008FF00DEF8FF017EF8FF01DC014F01EC084
:101E200015F01BC016F01CC017F074EC94F01DC028
:101E300003F01EC004F060EC95F0245003241B6EE8
:101E4000255004201C6E120029EC98F083C0D9FFA5
:101E500084C0DAFFDF6E0001834B842B8507D8A096
:101E6000860785518611D8B438EF8FF03AEF8FF09E
:101E70003FEF8FF01DEC98F0050E77EF8FF089871C
:101E80004AEF8FF0F6EC97F077EF8FF0FAEC97F0DF
:101E900077EF8FF072C00EF073C00FF002D85BEFD7
:101EA0008FF00500FA6E6051FD6E6151FE6E625159
:101EB000FF6EFA501200106E116A1150000AD8B469
:101EC00064EF8FF046EF8FF01050010AD8B446EF60
:101ED0008FF0030AD8B442EF8FF0010AD8B442EF72
:101EE0008FF0070AD8B446EF8FF046EF8FF012005C
:101EF000036E010E046E000189B581EF8FF083EF50
:101F00008FF0C7EF8FF003C082F0899389858991A4
:101F10000E0E876F010E816FF40E806F89875E0E43
:101F2000606F300E616F010E626F000E726F000EF7
:101F3000736F5E0E636F300E646F010E656F000E7F
:101F4000746F000E756F5E0E666F300E676F010E58
:101F5000686F000E766F000E776F5E0E696F300E41
:101F60006A6F010E6B6F000E786F000E796F5A0E5C
:101F70006C6F300E6D6F010E6E6F000E7A6F000E7B
:101F80007B6F26EC98F0D6EC96F0000E046E0450B1
:101F90001200000E876E000E866E000E836E000E1D
:101FA000846E000E856E000E8C6E000E886EFE0E26
:101FB000896EE30E8A6E000E8B6E000E0F01266F87
:101FC000400E216FE10E196F000E2E6F000E116F83
:101FD000000E256F000E2D6F000E186F000E106F93
:101FE000000E206F000E2C6F000E0F6F000E176F8B
:101FF000000E1F6F000E246F0E6916691E6923699B
:10200000070E2B6F0D6915691D6922690F0E2A6F66
:10201000100E0E01F76F090EB56F110EB76F080E97
:10202000EB6F090EEF6F0F0EF86F070EE76F100ED4
:10203000B86F12000D500E10D8B421EF90F023EFBE
:1020400090F02CEF90F00D500E10D8A42AEF90F0E5
:102050002CEF90F031EF90F00B50E3EC97F064EF41
:1020600090F020EE04F00D50D9260E50DA22DE500A
:10207000DE10D8B43EEF90F040EF90F05BEF90F0C0
:1020800020EE04F00D50D9260E50DA2210EE02F0A8
:102090000D50E1260E50E222DE50E65CE650800A4A
:1020A000136EDE50800A1358D8B059EF90F05BEFF2
:1020B00090F064EF90F020EE02F00D50D9260E5013
:1020C000DA22DE2A000EDD221200216E2150AAEC57
:1020D00090F08BEF90F0940E146E290E70EC91F04E
:1020E000226EA8EF90F0960E146E290E70EC91F00F
:1020F000226EA8EF90F0980E146E290E70EC91F0FD
:10210000226EA8EF90F09A0E146E290E70EC91F0EA
:10211000226EA8EF90F01E501F6E206A2050000A19
:10212000D8B495EF90F0A8EF90F01F50000AD8B403
:102130006BEF90F0010AD8B473EF90F0030AD8B4B3
:102140007BEF90F0010AD8B483EF90F0A8EF90F005
:10215000225012001B6EC5EF90F0010E1D6E290E6D
:102160001C6EE2EF90F0020E1D6E290E1C6EE2EF67
:1021700090F0040E1D6E290E1C6EE2EF90F0080E1A
:102180001D6E400E1C6EE2EF90F01B50196E1A6A25
:102190001A50000AD8B4CFEF90F0E2EF90F0195047
:1021A000010AD8B4ADEF90F0030AD8B4B3EF90F0C1
:1021B000010AD8B4B9EF90F0070AD8B4BFEF90F095
:1021C000E2EF90F01D0E146E000E156E000E176EED
:1021D000010E166E700E58EC93F01C501200086E33
:1021E000035004100510D8B4F8EF90F0FAEF90F017
:1021F00016EF91F00850030D600EF324D96E000E17
:10220000F420DA6E03C0DEFF04C0DEFF05C0DEFF8F
:102210000850020D720EF324D96E000EF420DA6E0F
:1022200006C0DEFF07C0DDFF30EF91F00850030D60
:10223000600EF324D96E000EF420DA6E5E0EDE6EB0
:10224000300EDE6E010EDE6E0850020D720EF324AB
:10225000D96E000EF420DA6E000EDE6E000EDD6E1A
:1022600012000001898742EF91F006EC98F06FEFC1
:1022700091F01AEC98F0030E6FEF91F002EC98F0E9
:102280006FEF91F072C00EF073C00FF002D853EFF1
:1022900091F00500FA6E6051FD6E6151FE6E625163
:1022A000FF6EFA501200106E116A1150000AD8B475
:1022B0005CEF91F03EEF91F01050010AD8B43EEF80
:1022C00091F0030AD8B435EF91F0010AD8B435EF94
:1022D00091F0070AD8B439EF91F03EEF91F0120077
:1022E000156E000E166E155078EC8FF00009D8B4FC
:1022F0007CEF91F07EEF91F073EF91F0500E096E4C
:102300002C0E0A6E010E0B6E160E0C6E000E0D6E6C
:1023100033EC97F0140E036E000E046E000E066E82
:10232000010E056EC4EC96F0000E096E000E0A6EEA
:10233000000E0B6E000E0C6E000E0D6E25EC97F06D
:10234000F2EC97F087EC96F0E806D8B4AAEF91F09B
:10235000ACEF91F0A2EF91F016501200056EC6EFAF
:1023600091F0840EEBEF91F08E0EEBEF91F0940E66
:10237000EBEF91F0990EEBEF91F0810EEBEF91F016
:102380009A0EEBEF91F00550EBEF91F00550036ED4
:10239000046A0450000AD8B4D0EF91F0C3EF91F072
:1023A0000350C40AD8B4B4EF91F0120AD8B4BAEF0B
:1023B00091F00A0AD8B4C0EF91F0380AD8B4B1EF5E
:1023C00091F0120AD8B4B7EF91F00A0AD8B4BDEF71
:1023D00091F0C3EF91F01200166E165078EC8FF06A
:1023E0000009D8B4F6EF91F0F8EF91F0EDEF91F02D
:1023F000F00E096E2B0E0A6E010E0B6E150E0C6E92
:10240000000E0D6E33EC97F0140E036E000E046E8A
:10241000000E066E010E056EC4EC96F0000E096EFD
:10242000000E0A6E000E0B6E000E0C6E000E0D6E8E
:1024300025EC97F0F2EC97F087EC96F0E806D8B42C
:1024400024EF92F026EF92F01CEF92F0120026ECAF
:1024500098F0000189A12FEF92F031EF92F03EEF5A
:1024600092F07EEC97F00009D8B439EF92F03BEF90
:1024700092F03EEF92F00F0E0001876F000187513E
:10248000030DBD0EF324F66EFE0EF420F76EF86A0F
:10249000000EF82202D85AEF92F00500FA6E0900F9
:1024A000F550FD6E0900F550FE6E0900F550FF6E07
:1024B000FA5012000001876F120000018991020E8C
:1024C000886F6BEF92F006EC98F092EF92F002ECCE
:1024D00098F092EF92F076C00EF077C00FF020EEF9
:1024E00066F002D87EEF92F00500FA6EDE50FD6EC7
:1024F000DE50FE6EDE50FF6EFA501200106E116A52
:102500001150000AD8B487EF92F067EF92F01050A4
:10251000020AD8B463EF92F0010AD8B463EF92F0E4
:1025200067EF92F01200D1C057F0D2C058F0000E01
:1025300000018B6F000E8A6FB1EF92F0CFC04DF0AB
:10254000D0C04EF0570E4F6E000E506ED3C051F0FB
:10255000D4C052F049EC83F04D5000018A274E5010
:102560008B2357C0F6FF58C0F7FF000EF86E080027
:10257000F5500009D8A4BFEF92F0C1EF92F09EEFA2
:1025800092F08AC0CFF08BC0D0F01200045007E167
:10259000640E035CD8B0CFEF92F0D1EF92F0D3EF9E
:1025A00092F0E0EF92F0E40E00D000D0E82EFCD7DD
:1025B00000D000D0640E035E000E045AC6EF92F005
:1025C000045007E10A0E035CD8B0E9EF92F0EBEF9C
:1025D00092F0EDEF92F0F7EF92F0350EE82EFED785
:1025E00000F00A0E035E000E045AE0EF92F01200B3
:1025F000096E0FEF93F0010E046E000E28EC95F0BB
:1026000028EF93F088EC97F028EF93F08784095037
:10261000AEEC91F04FEC97F0879428EF93F00950CF
:10262000076E086A0850000AD8B419EF93F006EF55
:1026300093F007500A0AD8B4FBEF92F0060AD8B418
:1026400002EF93F0010AD8B4FBEF92F006EF93F09B
:102650001200010E0001FA6FFA51AAEC90F01F6E01
:10266000800E146E030E156E1F50ECEC91F03F0EB1
:102670001E6E550EE82EFED71E2EFCD700F0810EE2
:10268000146EFF0E156E1F50ECEC91F08F0E146E51
:10269000110E156E1F50ECEC91F00001FA2B030E99
:1026A000FA6555EF93F057EF93F02CEF93F012008B
:1026B000186E185078EC8FF00009D8B462EF93F0E0
:1026C00064EF93F059EF93F014C003F015C004F0D9
:1026D00016C005F017C006F0C4EC96F0000E096EA7
:1026E000000E0A6E000E0B6E000E0C6E000E0D6ECC
:1026F00025EC97F0F2EC97F087EC96F0E806D8B46A
:1027000084EF93F086EF93F07CEF93F012009F0E2E
:102710000B6EFF0E0C6E09C00DF00AC00EF00B50D0
:102720000D260C500E220E500AE11A0E0D5CD8A098
:102730009CEF93F09FEF93F0010EA0EF93F0000E4B
:102740000F6E106A0F501010D8B4A9EF93F0ABEFD2
:1027500093F0B1EF93F05F0E0914096E0A6AB5EFBA
:1027600093F009C009F00AC00AF01200858487942A
:102770008790040E056E400E046E260EE82EFED7DE
:10278000042EFCD7052EFAD700D0390E4FEC97F067
:10279000140E4FEC97F0550E4FEC97F06D0E4FEC7A
:1027A00097F07C0E4FEC97F0380E4FEC97F00C0E34
:1027B0004FEC97F0010E4FEC97F0060E4FEC97F0B0
:1027C0001200010E096E200E03180410D8B4EBEFAE
:1027D00093F0EDEF93F006EF94F0F70E056EFF0E19
:1027E000066E03C007F004C008F005500726065027
:1027F0000822085009E1050E075CD8A002EF94F00A
:1028000004EF94F006EF94F0000E096E09C003F097
:10281000046A1200080E9F6E900E9D6E240E9E6E2E
:102820008A0E9B6E000E9C6E000E036E000E046EF0
:10283000000E056EC3EC97F0000E036E000E046EE2
:10284000000E056EBCEC97F0000E036E000E046ED9
:10285000000E056ECAEC97F0000E0001996F120091
:10286000126E010E136E000189B339EF94F03BEF45
:1028700094F050EF94F08983000E136E1250D8B488
:1028800044EF94F046EF94F04AEF94F0010E876F16
:102890004CEF94F0020E876F35EC98F0F8EC96F060
:1028A0001350120020EE02F00E50D9260F50DA22FB
:1028B000DECF03F0DDCF04F00EC0D9FF0FC0DAFF8A
:1028C000DECF05F0DDCF06F0C4EC96F0000E096E09
:1028D000000E0A6E000E0B6E000E0C6E000E0D6EDA
:1028E00033EC97F0020E1200000E1A6E000E196EF5
:1028F00085EF94F018C00BF00C6A16C00DF017C0ED
:102900000EF01AEC90F0194A1A2A19501424D96EB4
:102910001A501520DA6EDF50186E1850D8A493EFB5
:1029200094F095EF94F07AEF94F0120016BEA3EFB6
:1029300094F0165006E11504D8B0A1EF94F0A3EF7F
:1029400094F0B1EF94F015C017F016C018F0171EF0
:10295000181E174A182A17C015F018C016F0B5EF40
:1029600094F015C015F016C016F012009F0E056EFB
:10297000FF0E066E200E0310076E000E0410086E88
:10298000055007260650082208500AE11A0E075C77
:10299000D8A0CDEF94F0D0EF94F0010ED1EF94F0E9
:1029A000000E036E046A1200760EF66E300EF76E9D
:1029B000010EF86E0900F5CFFBF00900F5CFFCF031
:1029C0000900F5CFFDF000EE60F05A0EEE6AE80661
:1029D000FDE15C6A5B6A5D905D92000100EF80F052
:1029E0009F0E056EFF0E066E03C007F004C008F0D0
:1029F000055007260650082208500AE11A0E075C07
:102A0000D8A005EF95F008EF95F0010E09EF95F0CD
:102A1000000E036E046A1200BF0E056EFF0E066EF6
:102A200003C007F004C008F005500726065008222E
:102A300008500AE11A0E075CD8A021EF95F024EFA8
:102A400095F0010E25EF95F0000E036E046A12005A
:102A5000056E0450D8A42FEF95F031EF95F033EFC9
:102A600095F0000E066E0404D8A439EF95F03BEF04
:102A700095F03DEF95F0400E066E05500626065087
:102A800080094FEC97F01200D00E056EFF0E066E17
:102A900003C007F004C008F00550072606500822BE
:102AA00008500AE10A0E075CD8A059EF95F05CEFD8
:102AB00095F0010E5DEF95F0000E036E046A1200B2
:102AC00003C005F004C006F068EF95F0034A042A3D
:102AD00003C0D9FF04C0DAFFDF50D8A472EF95F02D
:102AE00074EF95F066EF95F00550035C036E0650A9
:102AF0000458046E120003C005F004C006F0D8901C
:102B000006320532D890063205320550A16E03C058
:102B100005F0030E0516060E066ED8900536062E35
:102B20008DEF95F00550A06E120003C005F004C0B3
:102B300006F0D89006320532D8900632053205509C
:102B4000A46E03C005F0030E0516060E066ED8909F
:102B50000536062EA7EF95F00550A36E1200000172
:102B6000EC51ED11EE11D8B4B8EF95F0BAEF95F045
:102B7000C7EF95F002D8C7EF95F00500FA6EEC515B
:102B8000FD6EED51FE6EEE51FF6EFA501200120016
:102B90008FAACDEF95F0CFEF95F0DFEF95F0010E16
:102BA0000001986F000E936F000E926F88EC97F003
:102BB000A20E0001D56FFF0ED66F9DEC96F01200AD
:102BC000000E1F6E400EAAEC90F05E0E146E400ECA
:102BD00070EC91F01E6E1EC003F0046A000E066ECB
:102BE000040E056E61EC8EF003501F6E1F50120034
:102BF0000EC003F00FC004F0000E066E010E056E4D
:102C0000C4EC96F0000E096E000E0A6E000E0B6EFC
:102C1000000E0C6E000E0D6E33EC97F0040E1200D9
:102C20000EC003F00FC004F0000E066E020E056E1B
:102C3000C4EC96F0000E096E000E0A6E000E0B6ECC
:102C4000000E0C6E000E0D6E33EC97F0020E1200AB
:102C50000EC003F00FC004F0000E066E010E056EEC
:102C6000C4EC96F0000E096E000E0A6E000E0B6E9C
:102C7000000E0C6E000E0D6E33EC97F0020E12007B
:102C80000EC003F00FC004F0000E066E020E056EBB
:102C9000C4EC96F0000E096E000E0A6E000E0B6E6C
:102CA000000E0C6E000E0D6E33EC97F0040E120049
:102CB000010EB36E000EB26E000EB46E7C0EB06EDE
:102CC000000EAF6E0E01CE9BC68B7A0E036E300ED9
:102CD000046E010E056EB5EC97F0F00EB16E1200A9
:102CE00039EC98F041EC97F092EC97F0C9EC8FF04A
:102CF0005CEC97F058EC96F068EC97F007EC97F0E6
:102D000073EC97F016EC97F00AEC94F01200010EB9
:102D1000036E000189B38FEF96F091EF96F09BEF71
:102D200096F08995826926EC98F023EC98F037ECC0
:102D300098F088C003F003501200D70E0001E36F33
:102D4000000EE46F000ECF6F000ED06FD5C0D1F033
:102D5000D6C0D2F0E30ED36F000ED46F93EC92F096
:102D6000120003500502F3CF07F0F4CF08F0035030
:102D70000602F350082604500502F350082607C047
:102D800003F008C004F01200000189A7CAEF96F012
:102D9000CCEF96F0D5EF96F003C083F004C084F03A
:102DA00005C085F006C086F08997120096BADBEF61
:102DB00096F0DDEF96F0E6EF96F0000E956E080EB9
:102DC000966E000E976E9F0E936E968A120000010B
:102DD000F851905DF9519159D8A0F1EF96F0F3EFC9
:102DE00096F0E7EF96F0000E916F000E906F1200D4
:102DF000FEEF96F09CEC97F027EC92F0000189B37F
:102E000004EF97F006EF97F0FAEF96F01200010E3C
:102E1000B96E000EB86E000EBA6E3F0EB66E000EA2
:102E2000B56E0E01CE97800EB76E1200010EBF6E0A
:102E3000000EBE6E000EC06E3F0EBC6E000EBB6E6E
:102E40000E01CE93800EBD6E120009C003F00AC0C1
:102E500004F00BC005F00CC006F00DC007F0020E28
:102E6000EFEC90F0120009C003F00AC004F00BC0B0
:102E700005F00CC006F00DC007F0000EEFEC90F06E
:102E80001200000E0E01E16F000EE26F000EE36F04
:102E9000000EE46F000EE56F000EE66F1200036E89
:102EA000878203C086FF1A0EE82EFED700D08792D5
:102EB000A00EE82EFED71200600E0E01D86F000E95
:102EC000DA6F000EDC6F080EDE6F000EDD6F120091
:102ED000800EA26E3F0EA16EC00EA06EAE503F0BD4
:102EE0008009AE6E1200800EA56E3F0EA46EC00E5D
:102EF000A36EAE50CF0B1009AE6E120097BC83EFDD
:102F000097F086EF97F0010E87EF97F0000E120012
:102F1000010E4FEC97F0040E046E4C0E036EC6ECDF
:102F200092F01200000E956E080E966E000E976ECF
:102F30009F0E936E969A12000E01CDA1A2EF97F00C
:102F4000A4EF97F09CEF97F0120000018981825165
:102F5000822512EC98F0030E120000018981D880BE
:102F6000823512EC98F0050E120003C0ECF004C09C
:102F7000EDF005C0EEF0120003C0F2F004C0F3F073
:102F800005C0F4F0120003C0F5F004C0F6F005C06F
:102F9000F7F0120003C0EFF004C0F0F005C0F1F04C
:102FA000120000018993000E886F0E0E12000001BE
:102FB00089912BEC98F0040E120000018993000E09
:102FC000886F0E0E12000A6E0A50F8EC92F0120092
:102FD00003C0F8F004C0F9F012000E01CE9BAFEC74
:102FE00095F01200000E30EC94F0120020EC98F0F6
:102FF000090E120020EC98F00A0E12001DEC98F059
:10300000050E120031EC98F0000E120033EC98F02F
:10301000010E120033EC98F0020E120033EC98F01F
:10302000010E1200036E03C092FF12000001904BCC
:10303000912B12000E01CD811200979A97881200F1
:10304000978A978812000E01C59112000E01CD914A
:1030500012009250120097861200050E1200010E07
:103060001200978412009782120097801200969A9D
:093070001200F29A120064000142
:02307A00120042
:020000040020DA
:10000000FF0FFF0FFF0FFF0FFF0FFF0FFF0FFF0F80
:020000040030CA
:0C0000008CFFFFFF9FFFFFFFFFFFFFFFD3
:00000001FF
